:040000006F00806F9E
:100004000000000000000000900000205C020020BE
:10001400A9BDF9F5940000200000000000000000D4
:10002400960000209800002000000000000000005E
:100034009A000020000000009C0000200000000046
:100044009E000020A0000020A2000020A4000020A8
:10005400A6000020A8000020AA000020AC00002078
:10006400AE000020B0000020B2000020B400002048
:10007400B6000020B8000020BA000020BC00002018
:10008400BE000020C0000020C2000020C4000020E8
:1000940001A001A001A001A001A001A001A001A054
:1000A40001A001A001A001A001A001A001A001A044
:1000B40001A001A001A001A001A001A001A001A034
:1000C40001A001A001A0B71700409306700523808A
:1000D400D704130780FA2380E7040100010003C654
:1000E400B7041376F60DA385C7042380070413769B
:1000F400050259CE03C6A700118A1DE22380D70446
:100104002380E7040100010003C7A7001367470029
:100114002385E7009307004B01000100FD17EDFF65
:10012400B7170040930670052380D704130780FA9D
:100134002380E704010001007D892394A7000100C6
:10014400010001000100238007042380D7042380D9
:10015400E704010001003727004093061005A303BC
:10016400D78023800704B717004013077005238046
:10017400E704130780FA2380E7040100010003C7A2
:10018400B70413670708A385E70423800704828064
:10019400137605042DCA03C6A700418A1DE22380F5
:1001A400D7042380E7040100010003C7A7001367F5
:1001B40007012385E7009307007D01000100FD1777
:1001C400EDFFB7170040930670052380D70413078B
:1001D40080FA2380E704010001007D89136505048A
:1001E4002394A700010001000100010023800704FB
:1001F4002380D7042380E70401000100372700404F
:1002040093062005A9BF2380D7042380E7040100B7
:10021400010003D787001367070C2394E700A1B7F5
:100224004111814601468145114506C6B12AB717D9
:100234000040130770052380E704130780FA238026
:10024400E7040100010003C7670413671700238351
:10025400E70423800704B2404101828081460146BD
:10026400814511451522B7170040130770052380F7
:10027400E704130780FA2380E704010001007D5797
:100284002396E70203C76704136717002383E70471
:100294002380070401A0BD473305F50201007D1545
:1002A40075FD8280411122C426C206C6AA84014477
:1002B40063179400B24022449244410182800504B1
:1002C4001305803E4204C13F4180DDB7230304800F
:1002D40015472303E48001002302A480828083075E
:1002E4006480E3CE07FE2303048082808307648056
:1002F400E3CE07FE03454480828083076480E3CE17
:1003040007FE2302A4808280411126C44AC24EC043
:1003140006C61377F50BAD47AA892E899544630663
:10032400F70019456537653F8D444E854537FD59BE
:10033400FD1463983401B240A24412498249410138
:100344008280135509011375F50F453F2209CDB776
:10035400011126CC06CEB704080051371545BD3728
:10036400713769372AC6A53F32459377150089EB63
:10037400136515001375F50FF240E24405618280A0
:10038400FD14E9FC0145CDBF397126DC4ADA4ED8AB
:1003940052D656D45AD25ED006DE62CE66CCB7E7C9
:1003A40000E07D5783AA070022C603AA470023A0C2
:1003B400E71823A2E718B717004013077005238036
:1003C400E704130780FA2380E70483C74704930BE9
:1003D40075FFB684E20793FBFB0F8546AA892E8B33
:1003E400328937240040E187015763FA76016308B4
:1003F400D5008946130700026313D5000157D98F2E
:1004040093F7F70FB71C00402382FC041147230322
:10041400E4801305F00F5D3D094CD135636D7C110B
:10042400B7050700DA9537870700795563F2E504C5
:10043400B3879500636EF702370B0800A94733EBC7
:1004440065016399F90689E48144513D26850DA02F
:10045400DA850945553D05090345F9FFFD14050BEA
:10046400693D81C49377FB0FFDF7DD3569FD7D554B
:10047400B7170040130770052380E704130780FAB9
:100484002380E70403C74704418B2382E704F25027
:10049400B7E700E023A0571123A24711E2543244E6
:1004A4005259C259325AA25A125B825B724CE24CC4
:1004B40021618280A5476395F90685691309F00FC8
:1004C400B3069900B3742B01B6941349F9FFB374BE
:1004D4009900856B33796901416B9387F9FFB3F711
:1004E400270199E363FC340193D94900C147E3E64A
:1004F40037FF99BF0569C1697D19D9B71305800D07
:1005040063886901130500026384790113051008E7
:10051400CA85DD3B353D21DD4E99B3843441D9B7DD
:10052400DA852D45D533CA94E30099F205097D3B5C
:10053400A30FA9FED5BF9387F9FF93F7F70F636164
:10054400FC0C83C71C0413073008631FF704370728
:100554000800636BEB04B3079B00B706100063F558
:10056400D704334BEB0089476393F9068980D54957
:10057400E38C04ECDA850945413B11090327C9FFE3
:1005840091472320E48003076480E34E07FE23039E
:100594003481FD17EDFBFD14110B81C49377FB0F20
:1005A400E9FF7D3371F5E1B5B717004003C7570480
:1005B400B70708001377070219E3B78707007955CF
:1005C400E378FBEA33079B00E3FFE7F855B585477B
:1005D400E382F9F2DA852D45053B9389F4FFE3853F
:1005E40004E6293393F7390091EB8326048003272B
:1005F400090093074900E39AE6E43E89CE84F1BFFB
:10060400B5476396F9001305900BC93135BDB14761
:100614001305B00AE38BF9FE99476391F904B70512
:100624000800B365BB002D45C53181448D4BA149FC
:10063400753963967401832704802320F9008504A7
:10064400E39834FF8327048013172B0163550700B5
:100654002312F900D5BB2322F900FDB39D4763990A
:10066400F90281451305B0044531BD442320090036
:1006740023220900FD599D3993F77400CA9703C7D3
:100684000700FD14398D2380A700E39634FF6DBB6A
:10069400A1476392F9046D398144630D0B008D47C2
:1006A4009304C0036308FB009304000563048B01F7
:1006B400930440041375C507E30895D819453931E7
:1006C40039390545213126850D3909453D314931F1
:1006D400E31C05D669BB91476399F90013056006CD
:1006E400F536F53E130590090DB7E38F09D4F1549F
:0406F400A9BB00009E
:1006F80097110020938181AD17810020130101908B
:1007080013054000970500209385458F17060020A4
:10071800130606FE63FAC5008322050023A05500D0
:1007280011059105E3EAC5FE179500001305C553A9
:10073800970500209385850C1386818063FAC50090
:100748008322050023A0550011059105E3EAC5FEA3
:1007580013858180938501CB6377B500232005003D
:100768001105E36DB5FEFD42739002BC8D42739096
:1007780042809302800873A002309702002093827F
:10078800E28793E23200739052309702000093821E
:10079800820B73901234730020303D432A876373B1
:1007A800C3029377F700BDEFADE5937606FF3D8A68
:1007B800BA960CC34CC30CC74CC74107E36BD7FEB2
:1007C80011E28280B306C3408A069702000096961B
:1007D8006780A6002307B700A306B7002306B70063
:1007E800A305B7002305B700A304B7002304B70087
:1007F800A303B7002303B700A302B7002302B7007F
:10080800A301B7002301B700A300B7002300B70076
:10081800828093F5F50F93968500D58D9396050103
:10082800D58D61B793962700970200009696868229
:10083800E78086FA9680C1171D8F3E96E374C3F849
:10084800A5B741111305800406C697000020E7806C
:100858004087371700408327870A8545130500100E
:1008680093E707202324F70AEF0030228D4513056C
:100878000020EF009021EF00B03F09287129CD2614
:1008880005456526EF00300E3928FDBF4111894521
:100898001305000806C6EF00501FB2408945014500
:1008A80041016F00501A657113060005814508085B
:1008B800232611182322911823202119232E3117BA
:1008C800232C411723248118232A51172328611721
:1008D8002326711723248117232291172320A11778
:1008E800232EB1155D3DEF00F00CAA85AA8417757B
:1008F80000001305A505EF10802DB71700402D4700
:10090800238CE704A3050100930900004D4A1779D9
:100918000000130929058347B100637BFA0A97771A
:100928000000938767FF8C434E851704002013044B
:10093800240BEF20703BAA84EF3000542A86AE8641
:100948001775000013050504EF106028977C000058
:10095800938CCCFC04C002C697740000938444FCBA
:1009680017790000130909FC97790000938989FD1C
:10097800177A0000130A4AFB977A0000938A0AFB49
:10098800177B0000130BCBFA977B0000938B8BFA35
:100998003247CD4763DBE7088320C1180324811859
:1009A80083244118032901188329C117032A8117B1
:1009B800832A4117032B0117832BC116032C811699
:1009C800832C4116032D0116832DC1155961828090
:1009D800EF00B0090344B1009C0A26950A043E942E
:1009E800EF30203D8347B100980A2320A4F68A07F8
:1009F800BA9703A507F6EF3020482A86AE864A85BF
:100A0800EF10E01C8347B100980A4E858A07BA9711
:100A180083A507F6EF20A0768347B100AA8985074A
:100A280093F7F70FA305F100FDB5B247980A324CCA
:100A3800FD178A07BA9703A507EC83A50C000A0CD3
:100A48003A9CEF2090552A8D8C400840EF20F054B6
:100A5800AA856A85EF20A072B247980A2320ACECD9
:100A68008A07BA9703A507ECEF3000412A86AE86BD
:100A780017750000130505F2EF106015B247980AC4
:100A8800324C8A07BA9703A507EC832509000A0C9C
:100A98003A9CEF209050EF30203E03A6090083A631
:100AA8004900EF105007EF30E047B247980A232873
:100AB800ACF08A07BA9703A507F1EF30E03B2A8626
:100AC800AE86177500001305E5EDEF104010B2472C
:100AD800980A324C8A07BA9703A507F183250A00BA
:100AE8000A0C3A9CEF20704B83A50A00EF20D01F18
:100AF80083250B00EF20704AB247980A2320ACF6F2
:100B08008A07BA9703A507F6EF3000372A86AE861C
:100B180017750000130505EBEF10600BB247980A34
:100B280083A50B008A07BA9703A507F6EF20F06F95
:100B380097770000938747E08C43EF20104697771C
:100B480000009387A7DF8C43EF203045EF30C03299
:100B58002A86AE862A8D177500001305A5E8AE8D86
:100B6800EF10E0066A86EE86977500009385C5E863
:100B780017050020130505E7EF30D0770547C14674
:100B880017060020130606E6C1451305C0021529FD
:100B9800FD201305401F97F0FF1FE7806070B247E4
:100BA80085073EC6F5B337170040ADC18327870CCC
:100BB800B7060800D58F2324F70C2147B717004044
:100BC80083A6C70A93E6160023A6D70A93168501BB
:100BD800E18663D5060483A6870A93E6260023A444
:100BE800D70A83A6870A7D17060593E6160023A46D
:100BF800D70A1377F70F1375F50F79F303A7870C47
:100C0800B7060800558F23A4E70C82808327C70CFA
:100C1800B7060800D58F2326F70C45B783A6C70A61
:100C280093E6260023A6D70A6DBF411106C619E927
:100C380081451305800C853F81451305100AB24094
:100C4800410195B78547631AF50081451305000CE6
:100C5800993F81451305000ADDB7B2404101828002
:100C6800411181451305D00806C6353F81455145D8
:100C78001D3FB24081451305F00A41012DB701110E
:100C880022CC4AC852C456C206CE26CA4EC6170936
:100C98000020130969D61304000B930A0008130AED
:100CA800800B81452285013781450145ED3D814510
:100CB8004145D53DCA89814403C509008504854558
:100CC80093F4F40FCD35A109E39854FF0504137488
:100CD800F40F0509E31744FDF2406244D244424947
:100CE800B249224A924A05618280014717060020CC
:100CF800130686D0930500082145B306C70081472F
:100D080085072380060093F7F70FA106E39AB7FE3D
:100D18000507E314A7FEA5B741118D450D4506C685
:100D280022C426C29D23370518008D4511050925C3
:100D3800371400408327C40CB70410001305800C37
:100D480093E747002326F40C0327C40C458F23267A
:100D5800E40C97F0FF1FE780A0548327840C81459B
:100D68001305E00AC58F2324F40C353D8145014560
:100D78001D3D81454145053D814513050004253547
:100D8800814513051008053581451305F00C213DF3
:100D980081451305100A013D81451305800C213555
:100DA80081451305600A013581451305800AE53B35
:100DB80081451305F003C53B81451305300DE53327
:100DC80081450145CD3381451305500DE93B8145EA
:100DD80013050008C93B81451305900DE93381458A
:100DE8001305100FC93381451305A00D6D3B8145CF
:100DF8004945553B81451305B00D753381451305AC
:100E080000045533814513050002713B81450945AE
:100E1800593B81451305D0087933814551456133E4
:100E280081451305400A413381451305600AA53BF6
:100E38006D3D2244B240924481451305F00A4101B8
:100E48009DB313F775008547B397E7000E0517079D
:100E58000020130767BA2A978D81BA9593F7F70F81
:100E680003C7050009C6D98F2380F500828093C780
:100E7800F7FFF98FD5BF1D71A2CCD2C462DC66DA48
:100E880086CEA6CACAC8CEC6D6C2DAC05EDE6AD8C0
:100E98006ED6A1472A8CAE8C13DA16001944638DDE
:100EA800F60013F476003334800093D736003E946E
:100EB80033048A021374F40F930406FE93F4F40FB8
:100EC80093074002B387F402B1491946E28B014BFC
:100ED800A14A3EC6B3893403939744003EC893376A
:100EE80017003ECAB384C4021376FB0F63618602FF
:100EF800F6406644D6444649B649264A964A064BC1
:100F0800F25B625CD25C425DB25D25618280639176
:100F1800560733069B00977700009387E7E23E96D3
:100F2800834D060013898C001379F90F668D13F62B
:100F38001D003DCE3A86EA855E8536CE3ACC11371D
:100F48006247F24693081D0013FDF80F93DD1D005C
:100F5800E31FA9FD93871B0093FBF70F63885601D6
:100F680033868B4163144601CA8CE28B050BADBFF7
:100F780031466399C60033063B0197770000938793
:100F880027FF71BF4146639AC600C2473306FB007C
:100F9800977700009387074559B76146E39AC6F4E7
:100FA800B2473306FB00978700009387A7A285BF47
:100FB8005246EA855E853ACE36CC61357247E246BE
:100FC80051B7797122D426D24AD04ECE52CC56CAC5
:100FD8005AC85EC606D62A84AE8AB28436893A8B47
:100FE80013DA16009309E005A14B03C60400930722
:100FF80006FE93F7F70F63FDF900B250225492549E
:101008000259F249624AD24A424BB24B4561828048
:101018005A87CA86D6852285B93D6317790119048E
:101028001374F40F8504D1B75294DDBF1D71A6CA9D
:1010380093F4760093D73600B3349000BE94CEC6AE
:1010480093098004B384D402931796003EC693177D
:1010580076003EC893175600A2CCCAC8D2C4D6C2DE
:10106800B309360366DA6AD86ED686CEDAC05EDE93
:1010780062DC2A8AAE8A3ECA2A840149977C00002B
:10108800938C0CA0177D0000130D8D97933D1700CE
:1010980013160901418263619602F6406644D644FC
:1010A8004649B649264A964A064BF25B625CD25CD0
:1010B800425DB25D25618280C147639BF604D247D9
:1010C8003306F9006A96034C060013838A00137BE3
:1010D800F30FD68B13761C0025CE3A86DE85228543
:1010E80036CE3ACCB93B6247F24613881B00937B55
:1010F800F80F135C1C00E31F7BFD05041374F40F49
:1011080033064441630FD604568B0509DA8A49B77A
:1011180061466396C6003306390166966DB71306B5
:101128000002639BC600C2473306F90097770000A8
:10113800938787993E9641BF13060004E39FC6F440
:10114800B2473306F900977700009387E79FDDB72A
:101158006E86DE8522853ACE36CCE5317247E24688
:1011680069B752845DB7411106C641360547C14685
:101178000146C14501455D3D0547C1460546C14596
:1011880049456D350547C1460946C1451305400225
:10119800713D130540060547C1461306D006C145F3
:1011A800D939F13CB2401305401F410117F3FF1F25
:1011B8006700030FB717004083C88705854603C833
:1011C8009705A38C0704238CD70403C7970593F8C6
:1011D800F80F1378F80F13679702A38CE704238D91
:1011E800D704371700408347A7059305A705858BC4
:1011F800FDFB0565C14637170040054E1303F5FF93
:101208002380C50103C60500058A6DFE0356C70580
:10121800FD16C2061346F6FF33766600C182B29702
:10122800E5F283469705A107918393F6760F130598
:101238000580A30CD7041D8D230C17054205A30CAC
:10124800070541858280B717004003C777051A054F
:1012580092054D8D1377E70F13653500A38BE704CF
:101268001375F50FA38CA70482800547B7170040B4
:10127800238DE704371700408347A705858BEDFFCB
:101288000355C705520551818280914763EEB70225
:10129800178700001307C7498A05BA959C41BA9772
:1012A8008287B717004003A7470B1345F5FF698FDF
:1012B80023AAE70A03A7070B698F23A8E70A03A74E
:1012C800070A798D23A0A70A8280B717004083A652
:1012D800470B1347F5FFF98E23AAD70A83A6070BF6
:1012E800558D23A8A70A83A6070A758F23A0E70AA6
:1012F8008280B717004003A7470B498F23AAE70A44
:1013080003A7070B1345F5FF45BFB717004083A692
:10131800470B1347F5FF758F23AAE70A03A7070AA8
:10132800598D4DB7B717004003A7470B498FEDB745
:10133800914763EEB702178700001307A7408A0595
:10134800BA959C41BA978287B717004003A7470D03
:101358001345F5FF698F23AAE70C03A7070D698FCB
:1013680023A8E70C03A7070C798D23A0A70C82807C
:10137800B717004083A6470D1347F5FFF98E23AA38
:10138800D70C83A6070D558D23A8A70C83A6070C99
:10139800758F23A0E70C8280B717004003A7470D7D
:1013A800498F23AAE70C03A7070D1345F5FF45BF8F
:1013B800B717004083A6470D1347F5FF758F23AA7B
:1013C800E70C03A7070C598D4DB7B717004003A7C3
:1013D800470D498FEDB7B717004003D58700420581
:1013E80041819377050491EB9377F5013755E8012F
:1013F800130505803345F50282809377050C1307A2
:1014080000046397E7009377F50137459C1CCDB737
:101418002165130505D08280814737370040A146F2
:1014280063C4C700328582800345B740E38EA6FEB9
:101438003385F5000345050085072304A740CDB78C
:10144800411122C406C62A8479372947B307E50221
:10145800B2408D83B3D7870222449507B3D7E702FA
:1014680037370040C207C1832316F7404101828005
:10147800716541111305052006C6D937B7370040F5
:10148800130770F82381E7400D47A381E74013074E
:101498000004A380E74005472387E740B2404101A5
:1014A8008280011106CE2EC615CD1841AA8705C324
:1014B80058417D5511CB8546631BD70098472300BB
:1014C800070023A207000545F2400561828098477E
:1014D800B2462300D7009847050798C7D8437D1719
:1014E800D8C3D5B705466C00053FF1BF797122D442
:1014F80026D24ECE52CC56CA06D64AD05AC82A8AC6
:10150800AE8A328481449309000263440602B38799
:101518009A00838707009DE363D6840263D2E402BE
:10152800198C93F726009309000281C719E39309E0
:101538000003858A01499DE6228929A88504C1BF3F
:10154800058CC5B70144F1BFCE8552853AC6913F97
:1015580032477D19E34A20FF228963530400014979
:101568003304244163CBE402CA84B3872441D69769
:10157800838507009DED228963412005635304009C
:10158800014433059400B250225492540259F2494E
:10159800624AD24A424B45618280B3049740268B07
:1015A8009305000352857D1BED3DE31B0BFE269939
:1015B80065BF5285FD3585044DBFCE855285D5352D
:1015C8007D195DBF5D71A6C252DC86C6A2C4CAC0C1
:1015D8004EDE56DABA843E8A9DE19307000301473E
:1015E800D28626862C08231CF1000937B6402644EB
:1015F80096440649F259625AD25A616182802A8910
:101608003684C68A91CAA94701446317F60063D590
:101618000500B305B0400544A30701029307F10292
:10162800A546130568FC33F7C50263D3E6002A977D
:1016380013070703A38FE7FE9389F7FF33D7C50284
:1016480063F7C50401CCB9C413772A0021C79305F1
:10165800D0024A8542C6B1353248FD1493774A0014
:1016680099CF93071006930500034A85631CF80277
:101678000D3D930580074A852D350904F9145687D1
:10168800D2862686CE854A859535229585B7BA8530
:10169800CE8751BF1307D002A38FE9FE0144938977
:1016A800E7FF6DBFFD3B93058005F1B71D71CEC601
:1016B800DAC0BE8986CEA2CCA6CACAC8D2C4D6C24F
:1016C8005EDE62DC66DA6AD86ED6B3E7C500428BA6
:1016D8008DEB930700030147C2864E862C00231426
:1016E800F1002935F6406644D6444649B649264AAB
:1016F800964A064BF25B625CD25C425DB25D256144
:101708008280AA8A368A3A89AE84328419CFA94758
:101718000149639CF600635A0600B304B040B3372E
:1017280090003304C0401D8C0549A30F0100130D20
:10173800F101935DFA41A54C138C68FC5286EE8644
:101748002685A285EF00500463D3AC00629513058B
:101758000503A30FADFE5286EE862685A285930B60
:10176800FDFF79216366B40163988D0263F6440333
:10177800630C09006386090293772B0095C39305D0
:10178800D0025685393BFD190147DA864E86DE853B
:101798005685A93B4A95B9B7AA842E845E8D79BF30
:1017A8009307D002A38FFBFE0149930BEDFFE9BF1E
:1017B800397126DA5AD0AA842E8B2E85B28506DE98
:1017C80022DC4AD84ED652D456D25ECE62CC66CAF5
:1017D8006AC8B28B36893AC6BE8942C4468AEF10B7
:1017E800E07232472248AE8CBA87AA850547D2886C
:1017F800CA8666862A8C2685553D2A8D9305E00281
:1018080026854531050D8147854A0144294763CC22
:1018180037076285E685EF10207B2A86AE865A85D3
:10182800DE85EF00D07A2A8BAE8B5685A285EF1025
:10183800A0792A86AE865A85DE85EF00D02DEF1076
:10184800E06C13D6F541318DB347B600B305C540FA
:101858003335B5003386C740D288CE87CA86098E0D
:101868000948268505479935F25062546A95D2543D
:101878004259B259225A925A025BF24B624CD24CEC
:10188800424D21618280B3068702850733345703AE
:10189800B30A57033694A5BF39715AD0379B000055
:1018A80022DC26DA4AD84ED652D456D25ECE62CC44
:1018B80006DE66CAAA892E893284014A8144930BBE
:1018C8005002930AB002294C130BCB75830509000B
:1018D80085E56385090081454E85E136F2506254FD
:1018E80026854259D254B259225A925A025BF24B77
:1018F800624CD24C21618280638775014E855536D2
:1019080085040509E1B783071900930C1900639949
:101918007701930550024E85693685046689D5B7E7
:10192800CDDB6387570563C8FA0013073002638469
:10193800E704814705A01307D002638AE70013076D
:101948000003E398E7FE930C2900894721A0930C34
:101958002900854703870C006303570563C1EA0222
:1019680093063002630BD70266890146A54535A860
:10197800930C29007DBF930C29009147E1BF930682
:10198800D0026309D70093060003E31FD7FC93E74F
:10199800270031A0850C8547C1BF93E74700850C18
:1019A800E1B733068603050936960307090093064F
:1019B80007FD13F5F60FE3F6A5FE9305E002994639
:1019C800631EB70005098146A545030709001307EB
:1019D80007FD1375F70F63F5A502368A030709009B
:1019E8009305A0066308B70A63C1E5029305C0041E
:1019F8006302B70A930580066307B70881451DA8E7
:101A0800B38686030509BA96C9B7930540076303E9
:101A1800B7089305A007630FB7061305C0068145ED
:101A2800631AA700030519008D456314E50005092D
:101A38009145050903070900130500061308100658
:101A48006344E50013081004130570066341E506B6
:101A580013055006635CA71413057004634EE50272
:101A6800930550046354B71493063004E31BD7E876
:101A78001840930C4400A30601002306E100BE862B
:101A880001476C0051A0030519008145E314E5FAEC
:101A980009094DB705099DB793063006E30AD7FC37
:101AA80063CAE606930680056303D70299BD9306C9
:101AB80030076303D70463CAE6029306F00663029D
:101AC800D70C9306000793E74700E31CD7E21147BA
:101AD8006392E50A1D04937584FFC2881384850008
:101AE8003E880147B287C14699A093065007630014
:101AF800D706930680074DBF1840930C4400DA853B
:101B080011C3BA855287BE864E85EFF03F9EAA94D0
:101B18006684C5BB11476392E5021D04937584FF73
:101B2800C288138485003E880547B287A946D041FC
:101B38008C414E85A53EAA94E9B30C40D288110485
:101B48003287854629464E85EFF0DFA7EDB7114766
:101B5800639CE5001D04937584FFC2881384850087
:101B68003E880147B287D9B70C40D2881104328722
:101B78008146C9BF0C4032871104D288814641464C
:101B8800D9B71147639DE5001D04937584FFC2888A
:101B9800138485003E880147B287A14649BF0C409F
:101BA80032871104D2888146214671BF1D0493757E
:101BB80084FF3307D64013848500D0418C41C28806
:101BC8007D173E884E85B687A946DD36ADB7397193
:101BD8002ED232D4AA855010014506CE36D63AD830
:101BE8003EDA42DC46DE32C64539F2402161828067
:101BF800B687B2882A832E88639D061463F9C50ABE
:101C08004167636EE61AB70700016363F6349356BB
:101C18008601E14717870000130787C436970347F3
:101C28000700BA97130700021D8F19CB3398E500F8
:101C3800B357F500B318E60033E807013313E5009E
:101C480013D608013355C80293960801C1829357E9
:101C580003013377C802B385A60242073368F70049
:101C6800637AB80046989307F5FF636418016367C1
:101C7800B8303E853308B8403357C802420313537F
:101C880003013378C802B386E60242083368680065
:101C9800637BD80046989307F7FF636518017917A7
:101CA8006363D8003E874205598D8145828001E6ED
:101CB8000547B358C702416763EAE80EB707000152
:101CC80063ECF82893D68801E147178700001307CB
:101CD80027B9369783460700BE9693070002958F6B
:101CE800E5EB939E08013387154113DF080193DE66
:101CF8000E018545935703013355E7033377E7030F
:101D0800B306D5034207D98F63FAD700C6971307DE
:101D1800F5FF63E4170163E6D7263A85958F33D735
:101D2800E703420313530301B3F7E703B30ED703E3
:101D3800C207B3E7670063FBD701C6979306F7FFAF
:101D480063E51701791763E3D70136874205598D93
:101D5800828063E2D504C16763E2F604B707000135
:101D680063E4F61E13D786016148978700009387BE
:101D780027AFBA9703C70700130E00024297330E26
:101D8800EE40631A0E0C63EDB61C3335C5001345DF
:101D98001500814582808145014582809307F00FB7
:101DA80063F3D71C13D786002148C1B71307F00F78
:101DB800C686E37C17F193D68800A14739B7130785
:101DC800F00FB286E378C7E493568600A14799B529
:101DD800B398F80033D6D50013DF0801335EE60365
:101DE8003397F500B356D500558F939E080193DEBF
:101DF8000E013313F50093550701B376E603B38755
:101E0800CE03C206CD8E63FBF600C6961306FEFF10
:101E180063E4161763F2F616791EC6969D8E33D6BE
:101E2800E60393170701C183B3F6E6033385CE02B1
:101E3800139706015D8F637BA70046979307F6FF0C
:101E4800636817136376A7127916469793150E01E0
:101E5800098FD18D45B5B357E600B396C601DD8E1F
:101E680033D3E50013DF0601B357E303939E06015E
:101E780093DE0E013398C5013357E5003368070137
:101E8800935808013316C6013373E303B385FE0282
:101E98004203B368130163FBB800B6981387F7FFD2
:101EA80063EAD80C63F8B80CF917B698B388B84049
:101EB80033D7E803420813580801B3F8E80333831B
:101EC800EE02C208B3E5080163FB6500B695130886
:101ED800F7FF63EDD50863FB65087917B695C20768
:101EE800416FD98F1307FFFFB3F6E70093D80701B7
:101EF800718F4182B38EE602B3856540B386C60210
:101F080013D80E013387E802BA96C2963386C80200
:101F180063F3E6007A9693D80601469663E2C50213
:101F28006385C5003E858145828041677D17F98EAE
:101F3800C206B3FEEE003315C501F696E374D5FE6E
:101F48001385F7FF8145828013D70601414831BDCB
:101F580093560601C1477DB993D60801C147B5B369
:101F68008145054582803687014801B5428785BF8E
:101F78003E86E9BDBA871DBF328E4DB579154698A4
:101F8800D5B97915C69759BBB68732882A832E8763
:101F98002E8E6393061463F1C50A41676378E61AC7
:101FA8001307F00FB2866375C70093568600A147E2
:101FB800178700001307C78A369703470700930857
:101FC8000002BA97B388F840638C0800B3951501EE
:101FD800B357F5003318160133EEB7003313150164
:101FE80013560801B357CE021315080141819356C1
:101FF8000301337ECE02B307F502420E3367DE00DB
:102008006378F7004297636507016373F7004297A7
:102018001D8FB356C70293170301C1833377C702D5
:102028003305D5024207D98F63ECA7083385A7404B
:10203800335515018145828001E605473358C702AB
:102048004167636CE80EB70700016365F82A935689
:102058008801E147178700001307878036970347F1
:10206800070093080002BA97B388F840639A081EDD
:10207800131E0801B385054113560801135E0E01AE
:1020880013570301B3D6C502B3F5C502B386C60319
:10209800C2054D8F6377D700429763640701636A6F
:1020A800D726158F3355C7024203135303013377DD
:1020B800C7023305C5034207B367670063F8A70083
:1020C800C29763E5070163F3A700C2973385A7406A
:1020D80033551501814582802A88E3EED5F4C1671E
:1020E80063E5F604B707000163E2F62013D386011F
:1020F800E148977700009387A7769A9703CE070061
:1021080013030002469E3303C3416319030463E4C7
:10211800B6006369C5003308C540958D333705019E
:102128003387E5404285BA8582809307F00F63FBC9
:10213800D71C13D38600A1486DBF1307F00FC286C2
:10214800E37A07F193568800A14729B7B70700013A
:102158006366F61A93568601E14799BDB357C601DF
:10216800B3966600DD8EB3D8C50113D70601B3DE7A
:10217800E802139F0601B357C501135F0F01B3951A
:102188006500DD8D13D8050133166600331565002B
:10219800B3F8E802B307DF03C20833E80801637B3A
:1021A800F80036989388FEFF6363D8166371F816B3
:1021B800F91E36983308F840B357E802C205C181C2
:1021C8003378E802330FFF02131708014D8F637B42
:1021D800E70136979385F7FF6369D7126377E713AB
:1021E800F9173697C20EC162B3EEFE001388F2FFEC
:1021F800B3F80E019355060193DE0E0133780601FC
:10220800B38F08033307E74133880E0393D70F01D1
:10221800B388B802C298C697B38EBE0263F30701AB
:10222800969E41687D1893D50701B3F70701C20749
:10223800B3FF0F01F695FE976362B70A630EB708FE
:10224800B307F5403335F500B305B740898D339EA4
:10225800C50133D567003365AE00B3D5650082800C
:102268003318180133D7F50013560801B356C702BF
:10227800131E0801B357F500135E0E01B39515013F
:10228800DD8D93DE0501331315013377C702B307DC
:10229800DE0293160701B3E6D60163F8F600C2968C
:1022A80063E5060163F3F600C2969D8E33D7C60236
:1022B80093970501C183B3F6C6023307EE029395DF
:1022C8000601DD8D63F8E500C29563E5050163F35A
:1022D800E500C295998D6DB3E374F5F63386C74072
:1022E800B3B7C700B6979D8DB28799BF13D30601C0
:1022F800C14801B593560801C147A9BB93560601C9
:10230800C1477DB136838148EDB3AE87E1BDC68E46
:1023180055B5429779B339714AD813D945014ED684
:1023280052D456D29399C50006DE22DC26DA5AD05A
:102338005ECE1379F97F2A8A93D9C90093DAF50119
:10234800630D090E9307F07F6306F9181354D5013E
:102358008E09B36934013704800033E4890093148B
:102368003500130919C08149814B13D74601139AC7
:10237800C6001377F77FB285135ACA0013DBF6013C
:10238800630B07109307F07F6303F7049357D60195
:102398000E0A33EA4701130717C0B7078000B3676F
:1023A800FA00931536003A99814833C76A01BD4649
:1023B8003A851308190063E83617177600001306E4
:1023C800263A8A09B29983A60900B2968286B3672B
:1023D800CA001309F97F6399071293E92900814517
:1023E8008948E1B701479307F07F37040800814423
:1023F8003204D20731807E075D8C598CA285F25059
:10240800625426854259D254B259225A925A025BD2
:10241800F24B216182805A853E84AE84C68B8947FF
:10242800638DFB0E8D47E38FFBFA85472A87639EF2
:10243800FB3881470144814465BF33E4A90061C08A
:1024480036C632C4638C092A4E85EF1050442246A2
:10245800B246AA87130755FF7544938487FF198CE2
:10246800B399990033548A0033643401B3149A0041
:1024780013D746011309D0C0139AC6001377F77F04
:102488003309F9408149814BB285135ACA0013DBDD
:10249800F601E31907EEB367CA00B1C7630F0A2252
:1024A800528532C4EF10B03E22462A87930655FF64
:1024B800F547930587FF958F331ABA00B357F6008F
:1024C800B3E74701B315B6003309E9401309D9C08A
:1024D8008148E1BD33E4A90001ECA1498144130915
:1024E800F07F894B59B593E919008145854875BD39
:1024F8004E84AA84B1491309F07F8D4BBDB591492B
:1025080081440149854B95B593E93900D2878D48B7
:1025180069BD89475685E397FBF02A879307F07FC3
:1025280001448144F1B5C16E1386FEFF93D60401C0
:1025380013DE0501F18CF18D338695023383B602E3
:102548009358060133059E021A95AA98B382C603CA
:1025580063F36800F692C16F1383FFFF33F56700DA
:1025680093D30701B3F76800C207337366003E933D
:102578003306950293D80801B387A602135F0601B4
:10258800B3849302BE94FA94B38E760263F3F40094
:10259800FE9E416A9307FAFF935F0401B376F40045
:1025A800B3F9F4007D8EC1803384D502C209338F1C
:1025B800D401B299CE98B307DE02935E0401B385C5
:1025C800BF02AE97BE9E330EFE0363F3BE00529E5B
:1025D800C1679385F7FF33F6BE006D8C42062296DD
:1025E80093DE0E01B305D502769E3385AF0213D470
:1025F8000501B386D302AA96A296B38FF30363F3B9
:10260800A600BE9F41657D15B3F7A600C2076D8D74
:10261800AA97B3855800B3B93501FA97B2953384B0
:10262800370133B6C500B30EC4013385CE00333449
:102638003401B3B7E701C18F33BECE0113D406010D
:102648003336C5003E943366CE0093949500329499
:102658007E94B3E46400260493567501B334900065
:10266800DD8193179500CD8C558CDD8C9317740004
:1026780063DB070093D7140085889316F401DD8C7B
:10268800D58C058042899307F93F6359F00893F682
:10269800740081CE93F6F40011466388C6009386D1
:1026A8004400B3B496002694B6849316740063D895
:1026B8000600B70700FFFD177D8C930709409306B6
:1026C800E07F63CFF60E93D634009314D40126042A
:1026D800D58C318093F7F77F21BB328532C4EF1058
:1026E800101B93065501F147130705022246E3D153
:1026F800D7DC6115B317A6008145F9B3EF1030197F
:1027080013075501F145930705022246B246E3D562
:10271800E5D461153314AA00814499BB85469D8E82
:10272800B1E71309E941B3972401B3D4D4003319AD
:102738002401B337F000B3649900DD8C93F774007B
:10274800B356D40081CF93F7F40011466388C700CD
:1027580093874400B3B49700A696BE8493978600E7
:1027680063D8070485470144814459B1130680039F
:10277800E341D6CC7D46E356D6FA0556B307F64074
:10278800930500023356F4006387B6001309E94342
:10279800B3172401DD8CB3349000D18C93F6740008
:1027A800014499CA93F7F40011468146E392C7FAA7
:1027B800139496003180F6068D80D58C81470DB92B
:1027C8009307F07F0144814425B142896DBD3707E5
:1027D80010007D1701113373B70093D84601758F28
:1027E800935ED60122CC26CA0E0393D44501935793
:1027F800D5010E0706CE4AC84EC693F8F87F130EC9
:10280800F07F33E7EE0093F4F47F13D4F50133E35C
:102818006700131F3500FD82931E36006380C819B8
:1028280093C61600B38514416305D4126351B018DA
:10283800638B081AB70780005D8F6381C4599307BB
:10284800800363C4B734FD4763C5B74893070002E4
:102858008D8FB3D9BE003318F700B39EFE003368DE
:1028680038013357B700B339D0013368380133031F
:10287800E340B3090F41B3373F013306F3409317E1
:10288800860063D30724370980007D193379260130
:10289800630F092C4A85EF10807F130785FF930784
:1028A8000002998FB3D7F9003316E900D18FB39995
:1028B800E9006344972A058F13061700FD4663C590
:1028C800C63A13070002118FB3D6C9003398E9003E
:1028D8003397E700558F33380001B369070133D6C2
:1028E800C700814493F7790081CF93F6F9009147A7
:1028F8006388F6009386490033B836014296B68954
:102908009317860063D6071C138714009307F07F7C
:1029180005886306F720B70780FFFD17F18F139826
:10292800D70193D93900A60733683801B1831377E3
:10293800F77F9396C7005207B1827E04D98EC18E65
:10294800F2406244D2444249B2494285B6850561A3
:1029580082806356B00A638A0812B70780005D8FC9
:102968006387C42D9307800363C7B718FD4763D2F5
:10297800B73C138805FE93070002B3590701638A21
:10298800F50093070004B385B7403317B700B3EEDB
:10299800EE003338D0013368380195A2B367D70108
:1029A8009385148099E393C61600630AD404D1E191
:1029B8009387140093F7E77F6399071EB367E301D2
:1029C8003368D701639204166382073C6316084292
:1029D800131835009316D3011358380033E806014D
:1029E8009357330019A2B367D7016385071A9387F2
:1029F800F5FF638B073A638CC523BE8589B5639958
:102A0800051C9386140093F7E67FC1EFB367E301D3
:102A180063900436638D0744B367D7016394074610
:102A28000E051318D3010D813368A800935733009E
:102A38006DA8B385984063970420B367E301638D5D
:102A480007309387F5FF638907401305F07F638399
:102A5800A520BE859307800363C2B72AFD4763C8D4
:102A6800B73C930700028D8F3318F3003356BF002D
:102A7800B317FF003368C800B339F0003353B3000D
:102A88003368380133076740B5ACB367D701638350
:102A980007109387F5FF638F071E6380C52FBE85D8
:102AA800D1B59307F07F638BF606FA9E33B6EE0135
:102AB800B307E300B2971398F70193DE1E00B369DA
:102AC800D80113D61700B68493F77900E39F07E07F
:102AD8009317D60113D839003368F800A6859357A1
:102AE80036001307F07F6380E506B207B18313F75A
:102AF800F57F05883DBD3367D7013338E000B3095A
:102B0800E801B3B7E9013386670093178600E3DD70
:102B180007FA85049307F07F639CF4180588130768
:102B2800F07F8147014831B5639107106301083C84
:102B3800131836009317D701135838003368F80074
:102B4800368493573700B367F800E9DB014413076D
:102B5800F07FB70708000148E9BB370680FF7D16FC
:102B68007D8E93F77900998CE39107D895B74E85B8
:102B7800EF10E05113078501FD47E3D2E7D21306B2
:102B880085FFB397C90081492DB33368D70133381E
:102B98000001C5B1131835009317D3011358380035
:102BA8003368F800935733002DBFB309DF41330969
:102BB800E34033363F013309C9409317890063CA9C
:102BC800072033E82901E31508CC8147014431BFC8
:102BD800B385984063810414B70680009307F07F9B
:102BE8003363D3006381F8209307800363CCB72253
:102BF800FD4763C9B72C930700028D8F3318F30084
:102C0800B356BF00B317FF003368D800B339F000DC
:102C18003353B300336838011A97B309D801B3B7EF
:102C2800D9013386E700C684CDB5E31108F213183D
:102C380035009317D301135838003368F8009357B9
:102C4800330011B7370580009307F07F3363A30083
:102C5800E392F8E00E061318D7010D823368C80016
:102C6800935737003684C5B505179306000233D746
:102C7800E700630AD600930600043386C6403396FD
:102C8800C700B3E9C90033383001B369E800014629
:102C980081441DBDB309DF01B307E30033BFE90178
:102CA8003386E701931786008544E3DF07E089440C
:102CB800B70780FFFD17F18F13D7190013F8190014
:102CC800336807019399F701B3E9090113D617008F
:102CD80011B9138805FE93070002B3590701638AE7
:102CE800F50093070004B385B7403317B700B3EE78
:102CF800EE003338D00133683801A5BE3363E301F1
:102D080033386000B3890E41B3B73E013306F7404C
:102D1800C6843684ADB6B367E30163870718938723
:102D2800F5FF638C071C9306F07F638ED50ABE857A
:102D380065BD930700028D8FB3D9BE003318F70025
:102D4800B39EFE00336838013357B700B339D0015A
:102D5800336838013A9365B3131836009317D701CF
:102D68001358380033E8070136849357370095BB6A
:102D7800BDCB3367D701E31B07DC0E051318D3015E
:102D88000D813368A8009357330075BBE30F08E241
:102D9800131836009317D701135838003368F80012
:102DA80036849357370091B3B309DF41B307E34043
:102DB800333F3F013386E7418544D1B413183500CA
:102DC8009316D3011358380033E80601935733009C
:102DD8009DBBB389EE413306674033B93E013309E1
:102DE8002641368475B40E061318D7010D82336850
:102DF800C8009357370081BBB309DF41B307E340ED
:102E080033363F013386C7409317860063D7070AD6
:102E1800B389EE41B3076740B3BE3E013386D7415D
:102E28003684C9B43363E30133386000FDB31388D3
:102E380005FE93070002B3590301638AF50093075F
:102E48000004B385B7403313B300336F6F003338D2
:102E5800E001336838017DB5B389EE41B3076740B7
:102E6800B3BE3E013386D7413684854409BC131866
:102E780036009317D701135838003368F800935772
:102E88003700A5B1B309DF01B307E30033BFE90198
:102E98003386E70193178600E3D807C2B70780FF98
:102EA800FD177D8E85440DB10E061318D7010D82CE
:102EB8003368C800935737002DB133E8C900E306DB
:102EC80008D019B1138805FE93070002B35903010E
:102ED800638AF50093070004B385B7403313B30042
:102EE800336F6F003338E001336838013DB3014474
:102EF8001307F07FB70708002DBCB309DF01B3073C
:102F0800E300B3BED9013386D70169BB3707100088
:102F180093D745019306F7FF93F7F77F1308E03F30
:102F2800ED8E13D6F5016353F8029305D04363D2AF
:102F3800F5028545918D3305B04013D6F541B705A7
:102F48000080B337A000918D9D8D82800145814519
:102F5800828013082043B3E5E6006354F802138720
:102F6800D7BA9387D7BC63450704B315E500014575
:102F780065D23305A040B337A000B305B0409D8D9E
:102F88008280930630439D8E7D47634CD70013871C
:102F9800D7BE3397E5003355D500598DB3D5D50045
:102FA800C1BF130530411D8D33D5A5008145C9B773
:102FB800FD46135715009D8E3357D700B395F5007E
:102FC800D98D3315F5006DB7011106CE22CC26CA6E
:102FD8004AC84EC6B367B5009DCFAE84AA8913D937
:102FE800F50163CE05042684ADC42685EF10200ABA
:102FF8009306E043898E9307304363CAD7089397B3
:10300800C4002D464E8793F6F67FB1836359A60018
:10301800130655FFB9A80149814681470147B20700
:10302800F2406244D206B1837E09D58FB3E7270107
:10303800D2444249B2493A85BE850561828033054A
:10304800A040B336A000B304B040958CAA8926846A
:10305800C9FC4E85EF10A0032A869306E0431305AA
:103068000502898E9307A00293F6F67F63C7A70C23
:1030780055061307B002098FB397C40033D7E90088
:103088005D8F9317C700B1833397C90049BF930772
:10309800604363DBD7022147098F930507FE63C2AC
:1030A800050CB3D5B40001471306850193078503C2
:1030B800634C06083396C9008149B3E9C900333621
:1030C8003001B3E9C5003A84A1474E8663C9A70415
:1030D800B70780FFFD17937576003377F40085C531
:1030E8009375F6001148638005039305460033B6CF
:1030F800C500329713168700635106089306F043FC
:103108007D8F898E2E8613553600931797001316D8
:10311800D7013367A600B18393F6F67F09B7930703
:103128008002930585FF898FB3D7F9003317B40060
:1031380033E4E7003396B90061BF5516B397C90069
:10314800B207B1830147E1BD7D4613D819001D8E32
:103158003358C8003396F4003366C800B399F900B1
:10316800A9BF7D46198E93971400B3D5E900B3978C
:10317800C700DD8D33D7E40005BF2E8669B741113E
:10318800370780007D1713D8750126C2935475013F
:103198003373A70093F4F40FB376B7004AC01378DB
:1031A800F80F1359F50106C622C4FD819A872685B2
:1031B8004A86131E3300939E3600B3880441630A7F
:1031C800B90E6350100D630408149307F00F638B56
:1031D800F414B7070004B3EEFE00ED4763C11729E6
:1031E80093070002B3871741B397FE00B3D81E01B7
:1031F800B337F000B3E7F800B307FE401397570062
:10320800635E0718370400047D147D8C2285EF0067
:1032180010686D15B317A4006348951A058D13043B
:10322800150013070002018F3397E7003337E000DA
:10323800B3D78700D98F814413F7770019C713F7DD
:10324800F70091466303D700910713975700635B14
:10325800071485041307F00F4A866383E4169A0758
:10326800A58313F5F40FB2402244A6079314750101
:1032780013D59700458D7E0692440249518D410130
:1032880082806399080A138714001377E70F63177E
:10329800071463900422630D0E1EE3860EFCB30729
:1032A800DE411397570063500722B387CE412E891A
:1032B80061B7635C100B630E08089307F00F638314
:1032C800F406B7070004B3EEFE00ED4763C9171F05
:1032D80093070002B3871741B397FE00B3D81E01C6
:1032E800B337F000B3E7F800F29713975700635726
:1032F800070A85041307F00F6384E40CB706007E01
:1033080013D71700FD16858B758FD98F35B7638D49
:103318000E08FD18B307DE41E38208EE9307F00FAD
:10332800E39DF4EA630D030801461305F00FB707A0
:10333800400015BF33079840EDE863020E147D176F
:10334800630807189307F00F6319F80E2E89368360
:10335800D1BF638B0E04FD18B307DE01E38708F8BD
:103368009307F00FE393F4F675BF63950808850497
:1033780013F7E40F6313071263170510630F0E1496
:10338800E3830EEEB307DE011397570081446357BA
:103398000700370700FC7D17F98F854413F777007E
:1033A800E31F07E813D337009307F00FE38CF4F615
:1033B80093179300A58313F5F40F4A866DB54A86D3
:1033C8001305F00F814745B5370700FC7D17F98FC6
:1033D80013F77700898CE31407E6E9B73304DE4175
:1033E8009317540063C3070CE31204E20146014536
:1033F800814795BD33079840ADC49307F00FE308A4
:10340800F8F4B7070004336EFE00ED4763CCE70C11
:1034180093070002998FB317FE003357EE00B337B6
:10342800F000D98FF697C284C9B59307F00FE30F60
:10343800F8F0B7070004336EFE00ED4763C3E708F2
:1034480093060002998EB316DE00B357EE003337A9
:10345800D000D98FB387FE40C2842E8945B38547F3
:1034680061BB630E0E067D17B307DE01C284E30E4F
:1034780007E69307F00FE31AF8F8368365B5368345
:10348800C2842E8915B7E3040EECE38D0EE869BDFE
:10349800638D0E022E86B687F9B39307F00FE3818A
:1034A800F4F2B307DE018583D5BD3384CE412E897E
:1034B800B1BBE31C0EFCE3890EE62E8949BD8547A6
:1034C80025B5854741BFE39B07EC0146814761BBB2
:1034D800B387CE41C2842E8915B3B68769B33683C4
:1034E800C284D9B585473DBF3971935775014AD80C
:1034F80056D25ECE931A95001359F50106DE22DCEA
:1035080026DA4ED652D45AD093F7F70F93DA9A00A8
:10351800CA8B638207121307F00F6384E7128E0ABF
:1035280037070004B3EAEA00138A17F80144014B8D
:1035380093D775019394950093F7F70FA58093D9C6
:10354800F501FDC71307F00F6387E7028E04938721
:1035580017F837070004D98C330AFA408146558C8E
:10356800176700001307C7230A043A941C4033491D
:103578003901BA978287130A1AF0F9E88946558CF7
:10358800176700001307C7250A043A941C403349FB
:103598003901BA97828701491307F00FB70740002E
:1035A80013959700F25062549317770125817E098D
:1035B8005D8D33652501D2544259B259225A925A27
:1035C800025BF24B216182801307F00F8147C9BF6C
:1035D800A68ACE8B368B8947630BFB1A8D47E30C83
:1035E800FBFA8547630AFB0A1307FA0713F91B005E
:1035F8006357E01293F77A0099C793F7FA00914658
:103608006383D700910A93974A0063D90700B707E5
:1036180000F8FD17B3FAFA0013070A089307E00F3A
:10362800E3C4E7FA93976A00A5831377F70F8DBF72
:10363800B9E48546A9B763940A021144014A054BC7
:10364800C5BD63990A002144130AF00F094BCDB593
:103658008D4631B73144130AF00F0D4BD1BD568555
:103668002EC6EF00D0229307B5FFB39AFA0093074E
:10367800A0F8338AA7400144014BB24555BD2685C1
:10368800EF00F0201307B5FFB307AA00B394E400D6
:10369800138A67078146E1B513F91B000147814783
:1036A80001B74166139554007D1693570501698E3D
:1036B80063FA9A0AB3D5FA027D1AD6860147338887
:1036C800C502B3F6F602C206558F637B07012A9737
:1036D8009386F5FF6368A70A6376070BF9152A979F
:1036E80033070741B356F7023377F702B38AC602A6
:1036F8009317070163FB5701AA971387F6FF63E146
:10370800A70863FF5707F916AA97C205B38A574156
:10371800D58DB33A5001B3EA5501CA8BF1B5854648
:10372800998E11C76D4601478147E34BD6E6130AC8
:10373800EA09339A4A01B3D7DA00B33A4001B3E74A
:10374800570113F7770019C713F7F700914663037A
:10375800D700910713975700634807029A07A58374
:1037680001473DBD93D61A00B3D5F6021397FA0167
:1037780041833388C502B1B7CE8B368B814AA1BD50
:10378800BA8661B7B685A9BF0547814711BD13F948
:103798001B001307F00F814721B5797122D4135408
:1037A80075014ECE52CC9319950006D626D24AD032
:1037B80056CA5AC81374F40F93D99900135AF501CD
:1037C80069C49307F00F6308F40E9397390037071D
:1037D8000004B3E9E700130414F88144014B13D73C
:1037E8007501939A95001377F70F93DA9A0013D916
:1037F800F50145CF9307F00F630CF7028E0A130704
:1038080017F8B7070004B3EAFA003A9401463345BB
:103818002A01BD47AA869305140063E0971017672D
:1038280000001307E7FF8A04BA949C40BA9782877E
:103838001304F40F63960A0C93E424000946C1BFED
:1038480001451307F00FB7074000B2502254A607EE
:103858005E07A5837E05D98F92540259F249624AC0
:10386800D24A424B5D8D45618280CA86D689328BA9
:103878008947630FFB088D47E304FBFC85473685C2
:103888006310FB1A01478147C9B7639D090413D721
:103898007501939A95001377F70F91440144054BEE
:1038A80093DA9A0013D9F50131F7639D0A0093E47E
:1038B80014000546A9BF63920902A1441304F00F3E
:1038C800094B31BF5685E1279307B5FF098CB39A99
:1038D800FA001304A4F801461DBFB1441304F00F05
:1038E8000D4BF5BD4E852EC65D279307B5FF130416
:1038F800A0F8B399F900098C8144014BB245C5B5CC
:1039080093E434000D4621B78947D286E315FBF6C8
:1039180036851307F00F81470DBF41639306F3FF08
:1039280013D6090193D80A01B3F7D900B3FADA001C
:1039380033885703B389F80213570801B30A5603AB
:10394800D6994E9733061603637357011A96C167C3
:10395800FD17B376F7003378F800C206C29693993C
:10396800660093570701B3393001E982B2979A0785
:10397800B3E6D900B3E9D7009397490063D90700A4
:1039880013D7190093F71900B369F7002E841307AA
:10399800F4076350E00493F7790099C793F7F900A7
:1039A80091466383D70091099397490063D907002B
:1039B800B70700F8FD17B3F9F900130704089307D0
:1039C800E00F63CBE70493976900A5831377F70F9C
:1039D800ADBD8547B386E74011C76D4601478147AE
:1039E800E345D6E61307E4093397E9003337E000E7
:1039F800B3D7D900D98F13F7770019C713F7F70092
:103A080091466303D700910713975700634C07004B
:103A18009A07A583014715BD1307F00F814735B5F0
:103A28002E84B5B7054781470DB53707800041118A
:103A38007D179356750113D87501B377A70093F6D0
:103A4800F60F935EF5013376B70026C24AC01378A5
:103A5800F80F06C622C41303F00F3E8E3689F6848B
:103A6800139F3700FD8113153600B38806416302A2
:103A7800681093C51500638CBE106354100D631055
:103A880008106304051EFD18B307AF4063860802DB
:103A98009307F00F6388F616ED4763C717291307D6
:103AA8000002330717413317E500B35715013337C1
:103AB800E000D98FB307FF40139757006351071AE7
:103AC800370400047D147D8C2285D1236D15B3172E
:103AD800A400634E251B3305254113041500130765
:103AE8000002018F3397E7003337E000B3D7870030
:103AF800D98F014913F7770019C713F7F7009146D3
:103B08006303D700910713975700635E0714930662
:103B180019001307F00F93FE14006386E6169A0740
:103B2800A58393F6F60FA607B240224413D5970053
:103B3800DE069397FE01558D924402495D8D410141
:103B480082806392080A138716001377E70F631BB6
:103B580007146394062263020F2071D5B307AF40A0
:103B68001397570063550722B307E5410149AE840F
:103B780051B7E30005F0638ABE0AE35410FD9307CA
:103B8800F00F6381F608B70700045D8D31B7635EF7
:103B98001009630108089307F00F6385F606B70755
:103BA80000045D8DED4763C0171F1307000233073C
:103BB80017413317E500B35715013337E000D98FA4
:103BC800FA9713975700635C070805091307F00F66
:103BD800630BE90AB706007E13D71700FD16858B1D
:103BE800758FD98F01BF3307D84063950610630DD1
:103BF8000F147D176303071A9307F00F6314F81067
:103C0800AE84328E630F0E06814E9306F00FB7070F
:103C1800400011BF39C9FD18B307AF00E38308FAA4
:103C28009307F00FE390F6F8F1BF6399080813893A
:103C380016001377E90F63160712639B06106303D8
:103C48000F16E30205EEB307AF00139757000149BB
:103C580063570700370700FC7D17F98F054913F7ED
:103C68007700E31C07E813DE37009307F00FE30B38
:103C7800F9F893179E00A5839376F90F93FE140025
:103C88005DB593FE14009306F00F814769BD3707B1
:103C980000FC7D17F98F13F777003309A940E31E5D
:103CA80007E4D1B73304AF409317540063C3070C3C
:103CB800E31C04E0814E81468147B5B53307D840FF
:103CC800B5C69307F00FE30EF8F2B7070004336F99
:103CD800FF00ED4763CDE70C93070002998FB317F8
:103CE800FF003357EF00B337F0005D8FB307A7002D
:103CF8004289C1BD9307F00FE304F8F0B707000449
:103D0800336FFF00ED4763C2E70893070002998FFE
:103D1800B317FF003357EF00B337F000D98FB3075D
:103D2800F5404289AE8449BB854769B3630E0F06E7
:103D38007D17B307AF004289E30507E89307F00F43
:103D4800E319F8F8328E7DBD328E4289AE8431BFD8
:103D5800E3090FEAE30805EA45BD0DCDAE8EB2874B
:103D6800D9B39307F00FE300F9F2B307AF008583E7
:103D7800FDB53304E541AE8481BBE31D0FFCE305CB
:103D880005E8AE84BDBD854725BD854749BF0149C6
:103D9800E39707EC814E814779B3B307E541428940
:103DA800AE8419BBB28741B3328E42897DBD0547C7
:103DB80035BF411106C622C426C20DCD9357F54121
:103DC80033C4A7001D8CAA842285D1249307E00957
:103DD8003387A74093076009FD8063CCE702A146BB
:103DE8009377F70F63D5A60061153314A400260452
:103DF800258021A08144814701442604135594005D
:103E0800B2402244DE07FE045D8D458D9244410197
:103E180082809307900963DDE7009307B501954613
:103E2800B317F400898E3354D400B337F0005D8C97
:103E3800954763D6A7009307B5FF3314F400B70678
:103E480000FCFD16937774003376D40085C393770E
:103E5800F4009145638CB70011069317560063D799
:103E680007009307F009758E3387A740131466007F
:103E780025809377F70F51B7135775011377F70F0D
:103E880041119307170022C426C21314950006C6D1
:103E980093F7E70F25809354F50185C793573400AE
:103EA800130707387604B2075207B1831395F40154
:103EB800D98FC98FB240228522449244BE854101E0
:103EC800828005EB39C42285D922A94763C6A70495
:103ED8002D47098F930755013357E4003314F40035
:103EE8009317C70013079038098FB1831377F77FAB
:103EF8005DBF01CC13573400B7070800D98FB2074C
:103F08007604B1831307F07F79BF1307F07F8147E9
:103F180059BF0147814741BF130755FF3317E400D5
:103F280001447DBF93D645019397C50093F6F67F6C
:103F3800B183138616008E071357D5011376E67FD3
:103F4800FD815D8F9318350035CE138806C8930719
:103F5800E00F63DD07018147139597009306F00F83
:103F6800DE062581FE05558D4D8D82806355000B3B
:103F7800931765000E07B337F000D98F93D8D8018F
:103F8800B3E7170113F777006301071013F7F7007A
:103F980091466303D7009107370700047D8F75C7E3
:103FA800130718001306F00F9376F70FE305C7FA07
:103FB8009A07A58313959700DE062581FE05558D82
:103FC8004D8D8280B367170199EE85CF95479A0783
:103FD800A5831395970093F6F60FDE062581FE0557
:103FE800558D4D8D8280A5DBB7074000139597004E
:103FF8009306F00FDE0681452581FE05558D4D8D12
:1040080082808147139597008146DE062581FE054B
:10401800558D4D8D8280A5576348F804F9473706BA
:104028008000B38707417D45598E6351F504795760
:1040380033070741130500023357E6006388A700DA
:10404800938626CAB316D600B3E8D800B337100152
:10405800D98F13F77700014815FB1397570085464A
:10406800E34807F48146A5B781468DB7938626C8ED
:104078003397D8003337E000B316D600B3D8F8002A
:10408800B367D700B3E7F800E9B7C28689B7C16755
:10409800637EF5029307F00F1307000263ECA70095
:1040A800975700009387C77BAA9703C50700330576
:1040B800A74082802181975700009387677AAA9743
:1040C80003C5070061473305A7408280B707000191
:1040D800636EF50061819757000093876778AA9708
:1040E80003C5070021473305A740828041819757C0
:1040F80000009387E776AA9703C507004147330571
:10410800A7408280797122D44AD052CC56CA5AC864
:1041180006D626D24ECE3A8AAE8A32843689428B69
:10412800014763580600370700803344C700130768
:10413800D0022380E70093F4F8FD930760048D46CE
:104148006388F4009307500489466393F4000509D3
:10415800DA879308C100130881004A87D68522862A
:10416800EF00B03293077004AA896396F400137ABB
:104178001A00630A0A0493076004338A29016397C3
:10418800F40203C7090093070003631EF700014602
:1041980081465685A285EF30201F11C58547338992
:1041A800274123202B0183270B003E9A0146814695
:1041B8005685A285EF30401D11E152C61307000352
:1041C800B24763E24703B2474257B2502254B3871B
:1041D80037411CC34E8592540259F249624AD24A69
:1041E800424B456182809386170036C62380E700DC
:1041F800C1BF2300C500130725009307B00263D68B
:104208000500B305B0409307D002A300F500A54709
:1042180063DAB70441119307F100BE8829481303F4
:104228003006B3E605031386F7FF93860603A38FCC
:10423800D7FEB3C60503634DB30093860603F9178B
:10424800A30FD6FE63E917013305A7404101828019
:10425800B287B685F9B7850783C6F7FF0507A30FA9
:10426800D7FECDB7930700031307450093850503D1
:104278002301F500A301B5003305A7408280197119
:104288003ACE86DEA2DCA6DA2E84CAD8CED6D2D41E
:10429800B689DAD0DECEE2CC3289D6D2E6CAEAC80E
:1042A800EEC6AA84EF10205E832B05005E85EF0022
:1042B8001009032B0400724702DC93760B102A8C3A
:1042C800034A84011C43F1CA9386470014C39C43E4
:1042D800081098433AD0D8433AD298473AD4DC47A2
:1042E8003ED6EF30203F28C46CC4832CC404175733
:1042F800000013072767832A8404032D0700832DF2
:10430800470093971C0085836A86EE865685BE858E
:104318003ECEEF30402441EDF2476A86EE86568560
:10432800BE85EF30E0176354A008014681465685E4
:10433800E685EF30E016635605009307D002A30127
:10434800F40493077004975A0000938A2A6263F66C
:104358004701975A0000938AAA61137BBBFF8D47D8
:10436800232064011CC8014B4E87CA867018A28599
:104378002685F126FD5C631C95157D55F65066541F
:10438800D6544659B659265A965A065BF64B664C89
:10439800D64C464DB64D096182809D07E19B9386B8
:1043A800870014C39843DC4338C47CC43DBF568699
:1043B800E6865685E685EF30001A11CD930770041E
:1043C800975A0000938A0A5BE3F947F9975A000065
:1043D800938A8A5A59B75C407D57137DFA0D6393C7
:1043E800E70899475CC0544013670B403C18D685D2
:1043F8003EC018C09307310302C2D2881308410394
:1044080066862685013393077004AA8AD255631BF2
:10441800FD00F55763C5F5005C4063D7B708791A06
:10442800137AFA0F9307500663E54705FD15528680
:10443800130504052EDA753B625785462A8BB307A8
:10444800A7001CC863C5E6001840058B19C385077B
:104458001CC883473103E38907F09307D002A301FF
:10446800F40419B713077004E31FEDF6ADFF854791
:1044780095BF93076006631BFA025C40635BB0005C
:104488000CC881E71840058B09CF8507AE971CC873
:1044980009A889E718408546058B19C39386270024
:1044A80014C82CCC014B75B7130A7006E25763C9C0
:1044B800F5001C400CC8858BEDD793871500C1BF4C
:1044C80005476344B00009470D8FBA97C9B71C4028
:1044D80013F7074015E314485686CA85268582993E
:1044E800E30D95E91C40898B63960724F2574844ED
:1044F800E356F5E83E8559B513075006637B47191F
:1045080028446C4401468146EF20106839E9854605
:104518001756000013068646CA8526858299E30E3B
:1045280095E55257E2576345F7001C40858BDDDB64
:10453800E2865E86CA8526858299FD57E30FF5E2F5
:10454800014A930AA4017D5BE257FD17E35CFAF880
:1045580085465686CA8526858299E30065E3050A5D
:10456800E5B7D2576346F00685461756000013068E
:10457800E640CA8526858299E30195E1D2576257BC
:10458800D98F81E71C40858BB1DFE2865E86CA85BC
:1045980026858299FD57E302F5DE014A130BA40133
:1045A800FD5BD257B307F040634BFA00E2565686DC
:1045B800CA8526858299FD57E316F5F27DBB8546A7
:1045C8005A86CA8526858299E30975DB050AD1BF13
:1045D8003C4C625A63D347013E8A635A4001D286F3
:1045E8005686CA8526858299FD57E308F5D8814CF9
:1045F800130DA401FD5D09A885466A86CA8526852E
:104608008299E30CB5D7850C032B8405D2876353B5
:104618000A008147B307FB40E3C0FCFE5257E2574C
:10462800634DF7021C40858B8DEBE2575257338A56
:10463800E7406344EB00338A6741635B4001D286FD
:1046480033866A01CA8526858299FD57E307F5D224
:10465800814A130BA401FD5B15A0E2865E86CA851C
:1046680026858299FD57E312F5FC01BB85465A86DB
:10467800CA8526858299E30275D1850A5257E25781
:10468800998F528763530A000147998FE3C0FAFE56
:1046980091BDE25605476344D700858BB5C785466B
:1046A8005686CA85268582997D5AE30845CDE286D5
:1046B8005E86CA8526858299E30145CD28446C44E7
:1046C80001468146EF20504C1DC9E25613861A0058
:1046D800CA85FD1626858299E30145CBDA8613063D
:1046E8000405F9B585465686CA8526858299E30666
:1046F80075C9050AE257FD17E346FAFEC5B7014A30
:10470800930AA401FD5BFDB785465686CA852685B2
:104718008299E31595FD95B185465686CA85268505
:104728008299E30C65C5050A5C447257998FE34585
:10473800FAFE6DBB014A930A94017D5BF5B7797166
:1047480056CA9C49BA8A984522D426D24ECE52CC13
:1047580006D64AD05AC85EC6AA892E84B284368A3A
:1047680063D3E700BA879CC00347340419C385079D
:104778009CC01C4093F7070281C79C4089079CC0D6
:104788000329040013796900631A0900130B9401C3
:10479800FD5B5C449840998F634CF9041C40834648
:1047A800340493F70702B336D000A5EB130634049C
:1047B800D2854E85829AFD576303F5041C40114645
:1047C8009840998B544481446397C700B384E6406A
:1047D80063D3040081441C4418486354F700998F3C
:1047E800BE94014969047D5B63982405014509A8C5
:1047F80085465A86D2854E85829A631E75017D55F7
:10480800B250225492540259F249624AD24A424B57
:10481800B24B456182800509ADBF3307D40013064A
:104828000003A301C7040347540493871600A29703
:104838008906A381E7049DBF85462286D2854E85D9
:10484800829AE30E65FB050945B7797122D426D211
:104858004AD04ECE06D652CC56CA5AC8B68983C656
:104868008501930790063289AA842E84138635041D
:10487800638DF60263E2D706930780056388F6180E
:1048880063EDD7006381062293073004638FF60A2D
:10489800930A24042301D404D1A093073006638625
:1048A800F60A93074006E395F6FE1C40084393F684
:1048B800070893054500CDC61C410CC363D8070003
:1048C8001307D002B307F040A301E4049756000091
:1048D8009386060B294775A8930700076384F61685
:1048E80063E5D7029307E006638BF6189307F00693
:1048F800E390F6FA0C401C4313F8050813854700AB
:104908006308080608C39C4395A893075007E383E8
:10491800F6FE93078007638BF61293073007E39937
:10492800F6F61C43D04181459386470014C383AAF9
:1049380007005685EF00F07701C53305554148C09B
:104948005C401CC8A301040471A81C43930A2404F6
:10495800938647009C4314C32301F4048547D5B7C5
:1049680093F607041C410CC3B1DAC207C187B9B773
:1049780093F5050408C3C1D983D707001307F006C8
:104988006387E60E97560000938686FF2947A301A2
:1049980004044C400CC463C5050008406D9908C068
:1049A80099E3B28A91CDB28AB3F5E702FD1AB695BA
:1049B80083C505002380BA00B3D5E70263FFE70A81
:1049C800A147631EF7001C40858B91CB58401C48BB
:1049D80063C7E70093070003A38FFAFEFD1A3306A7
:1049E800564110C84E87CA867000A2852685813B2D
:1049F8007D5A631E450B7D55B2502254925402597C
:104A0800F249624AD24A424B45618280A382D50468
:104A1800975600009386C6F60C40084313F805081D
:104A28001C411105630D080208C313F7150001C7DF
:104A380093E505020CC04147B9FB0C4093F5F5FD21
:104A48000CC0B1B79C4193E707029CC1930780074C
:104A5800A302F404975600009386C6F375BF13F8B3
:104A6800050408C3E30308FCC207C1837DBF97564A
:104A780000009386E6F0214719BFAE8735B7944109
:104A88001C43CC4913F80608138547006306080041
:104A980008C39C438CC301A808C393F606049C432F
:104AA800F5DA2390B70023280400B28A25BF1448FA
:104AB8005686CA8526858299E30F45F31C40898B63
:104AC8008DE7B2474844E359F5F23E8535B7854648
:104AD8005686CA8526858299E30F65F1050A5C44E6
:104AE8003247998FE345FAFEE9BF014A930A9401D8
:104AF8007D5BF5B735713ECBB707008093C7F7FFED
:104B08003ECE3EC8C1779387872032C536C73AC99B
:104B180042CD46CF3ECA97C7FF1F938727EB2AC4CB
:104B28002ACC884334012E862C0086DE36C2EF104C
:104B3800E07BA24723800700F6500D618280AA8798
:104B4800850703C7F7FF6DFF3385A7407D15828072
:104B5800011122CC1C49804906CE26CA4AC84EC635
:104B680052C456C263C187127D1413182400938956
:104B78004501338A0901130945014A9883270A0028
:104B8800032708008507B354F7026366F706C16870
:104B98004E834A8E814E014FFD1811030326C3FF31
:104BA800110E3377160141823307970233069602B6
:104BB800769793560701B3771701B307FF403696E8
:104BC8008326CEFF935E06013376160133F716016E
:104BD800BA97C18213D70741918EBA9613DF06415F
:104BE800B3F71701C206D58F232EFEFEE3776AFAC4
:104BF80083270800BDCBAA8AEF1060276349050404
:104C080041668504CA8501457D16910903A8C9FF37
:104C180098419105B376C800158DB376C700AA965A
:104C2800935707011358080113D70641B387074163
:104C3800BA9713D50741F18EC207D58F23AEF5FE7B
:104C4800E3753AFD93172400CA9798431DC7268534
:104C5800F2406244D2444249B249224A924A05612A
:104C680082808327080089E77D147118E36B09FFA8
:104C780000C951B7984309E77D14F117E36CF9FEB1
:104C880023A88A00E9B70145E1B775713ED85C51A0
:104C980022C526C34AC1CEDED2DCE2D406C7D6DAA4
:104CA800DAD8DED6E6D2EAD0EECE36C23AC646CA60
:104CB800AA842E843289C2892E8A328C89EF414592
:104CC800EF00303EC8D0232205002324050023200E
:104CD800050023260500DC508C4389CDD843854741
:104CE8002685B397E7009CC5D8C1EF00F051DC508A
:104CF80023A00700635309048547131C190023A048
:104D0800F900135C1C00B707F07F3377FC006314CD
:104D1800F70642578967320C9387F770135CCC000B
:104D28001CC3336C8C00E3040C30D24791EB9757CB
:104D380000009387E7CC3EC039A823A00900E1B75B
:104D4800975700009387C7CB3EC0975700009387BB
:104D580057CB52471CC3BA402A4402459A440A49D1
:104D6800F659665AD65A465BB65B265C965C065D73
:104D7800F64D49618280014681462285E28522CE30
:104D880062D4EF20606005E1425785471CC39757FE
:104D980000009387A7BE3EC0D247D5DF97570000D3
:104DA8009387D7BD7DB7B800F4006286A2852685B3
:104DB80013594C01EF10C01D1379F97FAA89A64A2F
:104DC800630D0910A2577245130919C09395C700BE
:104DD800B181B707F03FDD8D02DC9757000093875C
:104DE800E7BC9043D443EFD09F9E9757000093872A
:104DF80067BC9043D443EFD00FD2975700009387F6
:104E0800E7BB9043D443EF10F0092A8B4A85AE8B59
:104E1800EF20A07E975700009387C7BA9043D443EA
:104E2800EFD06FCF2A86AE865A85DE85EF109007C1
:104E38002A8BAE8BEF20E0752A84014681465A857D
:104E4800DE85EF20E065635B05002285EF20E07AD0
:104E58005A86DE86EF20405311C17D140547D94795
:104E68003AD663E3870213173400975700009387F5
:104E7800E7BBBA979043D4437245A255EF204062EE
:104E8800635305007D1402D633892A41930BF9FF39
:104E9800014B63D60B00054B330B2B41814B634E03
:104EA8000406A29B22CC814A1247A54763E5E71472
:104EB8009547854C63D6E7009307C7FF3EC2814CF0
:104EC80012478D47630EF71063CFE704894702C87E
:104ED800630DF70685473EC88DA036499307000243
:104EE80056991307294363D5E70213050004198D62
:104EF800930729413315AC003354F400418DEF205A
:104F0800E076B70710FEBE9585477D193EDCF1B502
:104F18003385E7403315A400DDB7330B8B40B30A64
:104F2800804002CC51B712479147630EF7000547FE
:104F38003AC8124795476306F70AFD573EC4FD5D18
:104F4800C94702C619A885473EC8B2476348F00A50
:104F5800854705473EC4854D3AC603A94402114713
:104F680023220900930647018325490063FCD708DB
:104F78002685EF001021DC502320A9009C433EC069
:104F8800B94763E6B71D63840C1C635E800A937798
:104F9800F40013973700935C4440975700009387B9
:104FA800E7A8BA9793F60C0198430949DC4385C6EC
:104FB80097560000938606A590527245D452A25582
:104FC8003AD03ED2EF1010610257925793FCFC0082
:104FD8002A8A2E8C0D49175D0000130DADA289A8F1
:104FE80002C8B247A2973EC4938D1700EE87E346E6
:104FF800B0F785479DB7854C02C2E9BDB2473EC4AC
:10500800BE8DA1BF85052322B9000607A1BF93F66F
:105018001C0081CE03260D0083264D003A85BE85EF
:10502800EFD06FAF05092A87AE8793DC1C40210DAE
:10503800E39F0CFC3A86BE865285E285EF109059B4
:105048002A8A2E8C81A0094915CCB30C804093F78D
:10505800FC0013973700975700009387279DBA974E
:105068009043D4437245A25593DC4C40175D000031
:10507800130D4D99EFD02FAA2A8A2E8C8147639C55
:105088000C12DDFFB2576387071417570000130788
:10509800E793104354435285E28552D0EF204040B5
:1050A800635A0512638B0D12A2476350F00A175713
:1050B8000000130727928257104354433E85E28528
:1050C800EFD06FA5A247130DF4FF2A8A2E8C05098D
:1050D80062874A853EDE52DABA8C3AD0EF20E05138
:1050E800525802573709C0FC4286BA86EFD0AFA2A1
:1050F800975600009386868E9042D442528CEF10C9
:10510800605AF2572A8A2E99E1EF97570000938741
:10511800678D525802579043D4434285BA85EFD0E1
:105128000FEB5286CA862A8CAE8CEF20802C634106
:10513800A054B7070080B3C727015286BE86628590
:10514800E685EF20E03563420552724A225CB64795
:1051580063C60730394763438730131734009757BE
:1051680000009387A78CBA9703AB070083AB47006F
:10517800B24763D207206340B02163980D4E97571A
:105188000000938727869043D4435A85DE85EFD065
:105198008F985286E286EF20C025814A01496351E3
:1051A800054A824702470504138A1700930710032C
:1051B8002300F70051A913F71C0009CB03260D00A3
:1051C80083264D000509EFD00F95854793DC1C40D9
:1051D800210D75B5228DEE87E5BD228D8147CDBDA8
:1051E8009386F7FF13963600975600009386068439
:1051F800B2968842CC428246B6973EDAC247E9C3A5
:10520800974700009387877E2A86AE868843CC43DB
:105218004ADE52D0EF10103C02587257174900006E
:105228001309497B4286BA86EFD06FDA024A2AD040
:105238002ED2E6856285EF20C0352ADEEF20E03BDE
:105248002A86AE866285E685EFD06FD8F2572A8C1B
:10525800AE8C2A86AE8602559255050A93870703B7
:10526800A30FFAFEEF20E0186348A00E974700004E
:105278009387C7758843CC436286E686EFD02FD5DF
:105288002A86AE8602559255EF20A0166341A018D3
:10529800D257E30CFAEA032609008326490002558F
:1052A8009255EFD04F8703260900832649002AD05C
:1052B8002ED26285E685EFD00F862A8CAE8C95BFFC
:1052C8005286CA86EFD02F85525A02492AD02ED24A
:1052D800E6856285EF20E02B2ADEEF2000322A8661
:1052E800AE866285E685EFD08FCE7257D257050914
:1052F80013070703A30FE9FE2A8CAE8C6312F90685
:10530800174900001309896E0326090083264900FE
:1053180002559255EF1000392A86AE866285E685D9
:10532800EF20200D6345A00E025692560325090072
:1053380083254900EFD0AFC92A86AE866285E68507
:10534800EF20001693070003E35105E00347FAFF37
:105358009306FAFF6304F7006A8459A8368AFDB7F2
:1053680097470000938707679043D443EFC0BFFA7D
:105378002A8CAE8CB1BFE287BE8C8247528C974A8A
:105388000000938A2A6513891700BE9D5A86DE8617
:105398006285E685EF101024EF20A01F2A8DEF20EC
:1053A800C0255A86DE86EFC01FF72A86AE8662853C
:1053B800E685EFD0CFC193070D03A30FF9FE2A8628
:1053C800AE864A8A639D2D07EF10C02D5A86DE8669
:1053D8002A8CAE8CEF20E001634AA0025A86DE8652
:1053E8006285E685EF10507A01E593771D0099EF05
:1053F800CE852685112DC25723000A00050480C3D7
:10540800D247E38A079423A04701B1B2228D13073C
:1054180090038346FAFF9307FAFF639AE6008246F1
:10542800639DF60013070003050D2380E60003C7FC
:10543800070005072380E70005B73E8AD9BF03A602
:105448000A0083A64A000509EFC0FFEC0146814621
:105458002A8CAE8CEF10507315F959BF4247630F71
:10546800070E924605476344D70C62579387374324
:1054780009E7264793076003998F568DDA8C85458F
:1054880026853E9BBE9BEF0060702A89635E900173
:10549800635C7001E68763D39B01DE87330BFB40B7
:1054A800B38CFC40B38BFB40638F0A02C247DDCB51
:1054B8006353A003CA856A862685EF00F0024E86EC
:1054C800AA852A892685EF00006E2ACECE852685F4
:1054D800252BF247BE893386AA4111C6CE8526857B
:1054E800EF009000AA8985452685EF00206AE247EB
:1054F800AA8A635BF0063E86AA852685EF00C07EF1
:1055080012478547AA8A014D63C8E706014D631211
:105518000A069317CC00528DA9EFB705F07F337CAC
:10552800BC0063080C04050B850B054D99A0138D71
:10553800FDFF63CAAA01338DAA4163DE0D00B30CD7
:10554800BB4181472DBFE247B30A5D41D6973ECCA8
:10555800EA8A014DDDB7DA8CEE8715B7568DDA8CFD
:1055680001492DB756869DBF12478547014DE3DF98
:10557800E7F8E247054581CF83A70A018D078A0727
:10558800D697C843A12B930700023385A7405E95A1
:105598007D8941C193070002898F11476358F70637
:1055A800F1473385A7402A9BAA9CAA9B63586001B0
:1055B800CE855A862685EF00A07EAA896358700199
:1055C800D6855E862685EF00A07DAA8AB257A1C738
:1055D800D6854E85EF00B009635F0502CE8581460A
:1055E800294626859D21C2477D14AA89638F0724F1
:1055F800CA858146294626858929A2472A89634181
:10560800F0081247894763DDE70629A8E380E7FA2F
:105618003E85710549BF6341B0071247894763DD7D
:10562800E7046EC4A24789EFD685814615462685CC
:105638002929AA8AAA854E85EF007003E343A0B6FC
:10564800B247024A13C4F7FF014BD68526856D2E53
:10565800E30009DA63070B0063052B01DA85268569
:105668006526CA8526854D2661B3814A0149C9BF89
:105678006A84814A014935B6C2476EC4638E071CE5
:1056880063589001CA8566862685EF0060712A896D
:105698004A8563040D02832549002685DD240326F7
:1056A80009012A8B9305C90009060A063105392C18
:1056B8000546DA852685EF00A06E824722474A8B89
:1056C800138C1700BA973EC693771A002A893EC4EE
:1056D800D6854E85EFF0CFC7DA852A8D930D050361
:1056E8004E85EF00C0784A86AA8BD6852685EF00BE
:1056F800207B5045930CFCFF2A8A054711E6AA85B2
:105708004E85EF00C0762A87D28526853AC8ED2CCB
:1057180092474247628AB3E6E700A247DD8E81EEF0
:10572800130790036388ED0463547001930D1D0300
:105738002380BC0119BF63CA0B009247B3EB770102
:10574800A247B3EBFB0063950B04E353E0FECE8561
:1057580005462685EF00C064D685AA89EF0020712A
:105768006346A00071F513F71D0079D31307900362
:10577800E39EEDFA930790032380FC0093069003C1
:105788008347FAFF1307FAFF6387D708850759A8E5
:10579800635BE00013079003E38EEDFC93871D0025
:1057A8002380FC005DB5B247A30FBCFF638D870360
:1057B800CE85814629462685492CAA8981462946CF
:1057C800DA85268563172B0149242A8B2A89050C3B
:1057D80001B7A52CCA852A8B814629462685B5247A
:1057E8002A89F5B7014BCE8505462685552BD685E2
:1057F800AA89EF00C067E343A0F801E593F71D000D
:10580800B5FF930700030347FAFF9306FAFFE31E69
:10581800F7E2368ACDBF82476399E700024705045D
:10582800930710032300F7000DB53A8A91BF52473A
:10583800974700009387071C3EC09747000093874F
:10584800E71B631807D06FF00FD1A2476346F0003B
:1058580012478947E3C8E7DC024AD6854E85EFF050
:105868002FAF8247050A930D05033307FA40A24775
:10587800A30FBAFFE358F7F6CE8581462946268559
:10588800E922AA89D9BF97B7FF1F938727149C439A
:10589800885309E517B5FF1F130545FC1305050FC8
:1058A800828097B7FF1F93876712AA8588436F0086
:1058B800900893F5F50F2A966314C5000145828078
:1058C80083470500E38DB7FE0505FDB7B3C7A500FF
:1058D8008D8B3307C50081E78D4763EEC700AA8724
:1058E8006370E50A83C6050085078505A38FD7FE83
:1058F800E3EAE7FE828093763500AA8791CA83C6D9
:10590800050085078505A38FD7FE93F63700FDB7F9
:105918009376C7FF138606FE63F0C70683A30500C8
:1059280083A2450083AF850003AFC50083AE0501A0
:1059380003AE450103A3850183A8C50193854502EC
:1059480023A0770003A8C5FF23A2570023A4F701CB
:1059580023A6E70123A8D70123AAC70123AC670020
:1059680023AE17019387470223AE07FF75B790410F
:105978009107910523AEC7FEE3EBD7FEE3E4E7F614
:1059880082805C51411122C44AC006C626C22A84BC
:105998002E8981EF4145313748D023220500232441
:1059A800050023200500232605004450DC4495C744
:1059B8005850931729005847BA9788431DED8544D6
:1059C800B3942401138654000A0685452285592D6F
:1059D80011CD2322250104C51DA0130610029145EF
:1059E800228549255C50C8C4DC47F9F30145B2401B
:1059F80022449244024941018280184198C32328D5
:105A0800050023260500E5B75C51011122CC06CE1E
:105A18002A8491EF41452EC66935B24548D02322E4
:105A2800050023240500232005002326050091C92D
:105A38005450DC4113972700DC46BA97984398C125
:105A48008CC3F24062440561828079714ECEAA8986
:105A5800416522D426D22E84844906D64AD0D1055F
:105A680001487D159C419105050833F7A7003307C8
:105A7800C702C183B387C702369793560701698F58
:105A8800B69793D60701C207BA9723AEF5FEE34B44
:105A980098FC8DCE1C4463C4F4024C404E8536C637
:105AA8008505C53510489305C4002A8909060A06E4
:105AB8003105293DA2854E85813FB2464A849387A8
:105AC80044008A07A297D4C3850404C82285B2502B
